{
  "_format": "hh-sol-artifact-1",
  "contractName": "Game",
  "sourceName": "contracts/Game.sol",
  "abi": [
    {
      "anonymous": false,
      "inputs": [
        {
          "indexed": true,
          "internalType": "uint256",
          "name": "_gameId",
          "type": "uint256"
        },
        {
          "indexed": true,
          "internalType": "uint256",
          "name": "_playersJoined",
          "type": "uint256"
        }
      ],
      "name": "BetAccepted",
      "type": "event"
    },
    {
      "anonymous": false,
      "inputs": [
        {
          "indexed": true,
          "internalType": "uint256",
          "name": "_gameId",
          "type": "uint256"
        },
        {
          "indexed": true,
          "internalType": "uint256",
          "name": "_playersJoined",
          "type": "uint256"
        }
      ],
      "name": "BetProposed",
      "type": "event"
    },
    {
      "anonymous": false,
      "inputs": [
        {
          "indexed": true,
          "internalType": "uint256",
          "name": "_gameId",
          "type": "uint256"
        }
      ],
      "name": "BetSettled",
      "type": "event"
    },
    {
      "stateMutability": "payable",
      "type": "fallback"
    },
    {
      "inputs": [
        {
          "internalType": "uint256",
          "name": "",
          "type": "uint256"
        }
      ],
      "name": "games",
      "outputs": [
        {
          "internalType": "address",
          "name": "player1",
          "type": "address"
        },
        {
          "internalType": "address",
          "name": "player2",
          "type": "address"
        },
        {
          "internalType": "uint256",
          "name": "player1Wager",
          "type": "uint256"
        },
        {
          "internalType": "uint256",
          "name": "player2Wager",
          "type": "uint256"
        },
        {
          "internalType": "uint256",
          "name": "playersJoined",
          "type": "uint256"
        },
        {
          "internalType": "uint256",
          "name": "settledBets",
          "type": "uint256"
        }
      ],
      "stateMutability": "view",
      "type": "function"
    },
    {
      "inputs": [
        {
          "internalType": "uint256",
          "name": "_gameId",
          "type": "uint256"
        }
      ],
      "name": "proposeBet",
      "outputs": [],
      "stateMutability": "payable",
      "type": "function"
    },
    {
      "inputs": [
        {
          "internalType": "uint256",
          "name": "_gameId",
          "type": "uint256"
        }
      ],
      "name": "settleBet",
      "outputs": [],
      "stateMutability": "payable",
      "type": "function"
    },
    {
      "stateMutability": "payable",
      "type": "receive"
    }
  ],
  "bytecode": "0x608060405234801561001057600080fd5b506108a6806100206000396000f3fe6080604052600436106100385760003560e01c8063117a5b901461004157806316fd381a14610083578063d43faafd1461009f5761003f565b3661003f57005b005b34801561004d57600080fd5b506100686004803603810190610063919061056c565b6100bb565b60405161007a969594939291906105e9565b60405180910390f35b61009d6004803603810190610098919061056c565b610137565b005b6100b960048036038101906100b4919061056c565b610299565b005b60006020528060005260406000206000915090508060000160009054906101000a900473ffffffffffffffffffffffffffffffffffffffff16908060010160009054906101000a900473ffffffffffffffffffffffffffffffffffffffff16908060020154908060030154908060040154908060050154905086565b6000806000838152602001908152602001600020600301546000808481526020019081526020016000206002015461016f9190610679565b905060003373ffffffffffffffffffffffffffffffffffffffff1682604051610197906106de565b60006040518083038185875af1925050503d80600081146101d4576040519150601f19603f3d011682016040523d82523d6000602084013e6101d9565b606091505b50509050801561021157827f2af64bb3967db2eca3bef74f05d00563b21a48637afcdef764bf0cd0115bbe6760405160405180910390a25b600080848152602001908152602001600020600080820160006101000a81549073ffffffffffffffffffffffffffffffffffffffff02191690556001820160006101000a81549073ffffffffffffffffffffffffffffffffffffffff021916905560028201600090556003820160009055600482016000905560058201600090555050505050565b60016000808381526020019081526020016000206004015411156102f2576040517f08c379a00000000000000000000000000000000000000000000000000000000081526004016102e990610776565b60405180910390fd5b60003411610335576040517f08c379a000000000000000000000000000000000000000000000000000000000815260040161032c90610808565b60405180910390fd5b60008060008381526020019081526020016000206004015403610433573360008083815260200190815260200160002060000160006101000a81548173ffffffffffffffffffffffffffffffffffffffff021916908373ffffffffffffffffffffffffffffffffffffffff160217905550346000808381526020019081526020016000206002018190555060008082815260200190815260200160002060040160008154809291906103e690610828565b919050555060008082815260200190815260200160002060040154817fbe20caab9fd377d44064d0b07b3f918ac14a5649351da4e9e27f29989d96a8e860405160405180910390a361052e565b6001600080838152602001908152602001600020600401540361052d573360008083815260200190815260200160002060010160006101000a81548173ffffffffffffffffffffffffffffffffffffffff021916908373ffffffffffffffffffffffffffffffffffffffff160217905550346000808381526020019081526020016000206003018190555060008082815260200190815260200160002060040160008154809291906104e490610828565b919050555060008082815260200190815260200160002060040154817f4fdf5a10151973e5e24cf58be1d3e380b171bc80c9aeb4cab7ea81b2147764e960405160405180910390a35b5b50565b600080fd5b6000819050919050565b61054981610536565b811461055457600080fd5b50565b60008135905061056681610540565b92915050565b60006020828403121561058257610581610531565b5b600061059084828501610557565b91505092915050565b600073ffffffffffffffffffffffffffffffffffffffff82169050919050565b60006105c482610599565b9050919050565b6105d4816105b9565b82525050565b6105e381610536565b82525050565b600060c0820190506105fe60008301896105cb565b61060b60208301886105cb565b61061860408301876105da565b61062560608301866105da565b61063260808301856105da565b61063f60a08301846105da565b979650505050505050565b7f4e487b7100000000000000000000000000000000000000000000000000000000600052601160045260246000fd5b600061068482610536565b915061068f83610536565b92508282019050808211156106a7576106a661064a565b5b92915050565b600081905092915050565b50565b60006106c86000836106ad565b91506106d3826106b8565b600082019050919050565b60006106e9826106bb565b9150819050919050565b600082825260208201905092915050565b7f74686572652061726520616c72656164792074776f20706c617965727320696e60008201527f20746869732067616d6500000000000000000000000000000000000000000000602082015250565b6000610760602a836106f3565b915061076b82610704565b604082019050919050565b6000602082019050818103600083015261078f81610753565b9050919050565b7f796f75206e65656420746f2061637475616c6c792062657420736f6d6574686960008201527f6e67000000000000000000000000000000000000000000000000000000000000602082015250565b60006107f26022836106f3565b91506107fd82610796565b604082019050919050565b60006020820190508181036000830152610821816107e5565b9050919050565b600061083382610536565b91507fffffffffffffffffffffffffffffffffffffffffffffffffffffffffffffffff82036108655761086461064a565b5b60018201905091905056fea26469706673582212202b3a3995060dfb8e364ce152cd589c99f775f7d7bcd42ba98c42be151ddef4b564736f6c63430008110033",
  "linkReferences": {},
  "deployedLinkReferences": {}
}